:10168900120408F59D900001120421FFE5BC549F46
:101699004FF5BC900002120421B4010543BC8080BF
:1016A9000353BC7F900003120421B4010543972022
:1016B90080035397DF900005120421B40104D2ADD1
:1016C9008002C2AD900004120421B40103D2BD22EC
:0316D900C2BD226D
:0C002E00EFB4010443BC802253BC7F22CD
:1015D000EFD3940740028051E4F5BDF5BEE5BC545D
:1015E000E044084FF5BC00000000E4FBE5BC30E43B
:1015F0003353BCEFE59730E509E5BD5403ADBEFCC0
:10160000801DAFBD7C00AD07ED7E007802C333CEF8
:1016100033CED8F9FFE5BE5403FDEEFCEF4DFDAF30
:0D16200005AE04220BEBB4FAC37E047F007C
:01162D00229A
:03002B00020003CD
:0400030053BCEF32C9
:10136D00EF7034D3ED9450EC940F40047C0F7D500E
:10137D00C3ED9450EC940050047C007D50C2DE907F
:10138D0000ABECF0A3EDF0C374A09D9000A6F0743B
:10139D000F9C9000A58073EF64017034D3ED9468B9
:1013AD00EC940B40047C0B7D68C3ED9450EC9400E1
:1013BD0050047C007D50C2DE9000ADECF0A3EDF04A
:1013CD00C374B89D9000A8F0740B9C9000A7803A50
:1013DD00EF64027038D3ED9480EC940740047C07E1
:1013ED007D80C3ED9450EC940050047C007D50C280
:1013FD00DE9000AFECF0A3EDF0AE04FFC374D09F10
:0E140D009000AAF074079E9000A9F0D2DE2293
:100CB0009000CBEBF0A3EAF0A3E9F0AD07EDD394FD
:100CC000034003020E4EED6403704CC2DEF5F9F5ED
:100CD000E99000CBE0FBA3E0FAA3E0F9120408FFDF
:100CE000E5A254CF4FF5A2900001120421FFE5D9EF
:100CF00054F14FF5D99000041204215401FFE5D9B5
:100D000054FE4FF5D9900005120421B40104D2BF5E
:100D10008002C2BFD2DE229000CBE0FBA3E0FAA3A8
:100D2000E02404F9E43AFA120408543112044E9013
:100D300000CBE0FBA3E0FAA3E0F99000021204214B
:100D4000C39448400FE92404F9E43AFA1204085421
:100D5000CF12044EED704F9000CBE0FBA3E0FAA35E
:100D6000E0F9900004120421FF900002120421FE19
:100D70004FF5DA900003120421FFE5F2543F4FF5DE
:100D8000F2900006120460FBAAF09000ABEAF0A318
:100D9000EBF0C2009000A2EEF09000B1EAF0A3EBFD
:100DA000F0F5EAEAF5FAED6401704F9000CBE0FB54
:100DB000A3E0FAA3E0F9900004120421FF900002DE
:100DC000120421FE4FF5DB900003120421FFE5F32E
:100DD000543F4FF5F3900006120460FBAAF0900018
:100DE000ADEAF0A3EBF0C2019000A3EEF09000B3E7
:100DF000EAF0A3EBF0F5EBEAF5FBED6402704F903F
:100E000000CBE0FBA3E0FAA3E0F990000412042178
:100E1000FF900002120421FE4FF5DC900003120443
:100E200021FFE5F4543F4FF5F4900006120460FDF5
:100E3000ACF09000AFECF0A3EDF0C2029000A4EE95
:0F0E4000F09000B5ECF0A3EDF0F5ECECF5FC2232
:03003B0002141B91
:10141B00C0E0C083C082C0D075D000C006C007300A
:10142B00D82AC2D830A5059000AB80039000A5E068
:10143B00FEA3E0FF9000B2E02FF09000B1E03EF091
:10144B009000B1E0FEA3E0F5EAEEF5FA30D92AC23E
:10145B00D930A6059000AD80039000A7E0FEA3E075
:10146B00FF9000B4E02FF09000B3E03EF09000B39B
:10147B00E0FEA3E0F5EBEEF5FB30DA2AC2DA30A79B
:10148B00059000AF80039000A9E0FEA3E0FF900061
:10149B00B6E02FF09000B5E03EF09000B5E0FEA373
:1014AB00E0F5ECEEF5FCD007D006D0D0D082D0839F
:0314BB00D0E0324C
:0F1829007DA57C06ED1D70011C144C70F7DFF1DE
:01183800228D
:101839001217891217E3D2AF12162E12171880FB4E
:101718003005179000921205D4000000007F007E6B
:10172800007D007C0012125BC20530040DC2047BF0
:10173800017A00793D7D081217B990003CE0B401A8
:0A1748000812063BE490003CF0227A
:08000E00410000004100010067
:0A184900C2038F993003FDC2032291
:0B092F0090009BEBF0A3EAF0A3E9F0BE
:10093A00EF64016003020B0A90000204F0E4A3F0E2
:10094A00A3F0A3F0A3F0A3F0A3F07F287849E4F67C
:10095A0008DFFC7F287821E4F608DFFC90009BE0A2
:10096A00FBA3E0FAA3E0F9120408D394C040037F82
:10097A00012290000A120421B40104D2BC8002C2EE
:10098A00BC120408FFE598543F4FF598EF64C06025
:10099A0008EF64406003020A849000021205987FFF
:1009AA00007E607D547C001204D490009E1205C81B
:1009BA00E4FFFE7D01FC90009EE0F8A3E0F9A3E0CD
:1009CA00FAA3E0FBC312057440037F022290009E43
:1009DA00E0F8A3E0F9A3E0FAA3E0FBC3E49BFFE499
:1009EA009AFE740199FDE498FC90009E1205C89045
:1009FA00009BE0FBA3E0FAA3E0F9900001120421B6
:100A0A00FB64017038C28E538EFE5389BF5389CF5F
:100A1A00438E4090009EE0FCA3E0FDA3E0FEA3E02D
:100A2A00FF78081205858F8D90009EA3A3A3E0F599
:100A3A008BC2AB5389BF538FFDD28E8076EB640293
:100A4A007035538EEF438E01538EF7438E04900018
:100A5A009EE0FCA3E0FDA3E0FEA3E0FF78081205F8
:100A6A00858FD690009EA3A3A3E0F5D753AFFB537F
:100A7A008EF7438E10803C7F022290009BE0FBA3FE
:100A8A00E0FAA3E0F9120408FF70139000081204B8
:100A9A0021B40105438E20801A538EDF8015EFB4EE
:100AAA008011900008120421B40105438780800355
:100ABA0053877F90009BE0FBA3E0FAA3E0F9900044
:100ACA0009120421B40104D2AC8002C2AC9000071E
:100ADA00120421B40104D29C8002C29C90000B1221
:100AEA00042154C0FFE5A2543F4FF5A290000C1216
:100AFA000421B4010543971080035397EF7F002226
:020B0A007F0367
:010B0C0022C6
:10180B00900004E02449F8A607E004F0C3942840B4
:0E181B0002E4F0900005E0700404F0D299227F
:0B17B900900096EBF0A3EAF0A3E9F02B
:1017C400E4FE900096E0FBA3E0FAA3E0F98E8275B4
:0E17D4008300120421FF1218490EEEB505E441
:0117E20022E4
:03002300021125A2
:10112500C0E0C0F0C083C082C0D075D000C000C090
:1011350001C002C003C004C005C006C00720980353
:031145000212395A
:10114800900089E599F0C29890003BE0FF701690F6
:101158000089E0FEB4AA0E90003B7401F0900009EB
:10116800EEF0021239EFB40116900089E0FFB4AF37
:101178000E90003B7402F090000AEFF002123990D2
:10118800003BE0B4021D900089E0FFD394004013B7
:10119800EF94F1500E90003B7403F090000BEFF0C9
:1011A80002123990003BE0FFB4031E900089E0FE74
:1011B800C39432501490003B7404F090000CEEF08D
:1011C800900000F0A3E4F08068EFB40432900000CF
:1011D800E0D394004029E014F0900089E0FF9000EB
:1011E80001E0FE04F0740D2EF582E43400F583EF7F
:1011F800F0900000E0703A90003B7405F080329067
:10120800003BE0B40526E4F0900089E0FF9000017F
:10121800E0FE240DF582E43400F583EFF07B017ADB
:10122800007909EE2405FD120FEA800590003BE4E1
:01123800F0C5
:10123900309904C299D203D007D006D005D004D082
:1012490003D002D001D000D0D0D082D083D0F0D04A
:02125900E03281
:1017890090008E7440F0A37402F0A31205D40001F6
:10179900C2009000957401F0E4A3F0A304F0E4A35F
:1017A900F0A3F0A3F07B017A00798E7F0102092F63
:02001600C10423
:0B0FEA0090008AEBF0A3EAF0A3E9F00E
:100FF500E4A3F0FFED14FEEFC39E501D90008AE0C0
:10100500FBA3E0FAA3E0F98F82758300120421FEA9
:1010150090008DE02EF00F80DB90008AE0FBA3E0CE
:10102500FAA3E07E002DF9EE3AFA90FFFF120421B3
:10103500FF90008DE0B50703D38001C34003021183
:101045002490008AE0FBA3E0FAA3E0F91204086407
:10105500AA600302112490000112042164AF600309
:10106500021124900002120421641260030211028D
:1010750090008AE0FBA3E0FAA3E0F99000041204D3
:1010850021FE900005120421FDEEFCEC12034EE456
:10109500FBFA79C8784212023F9000751205C89094
:1010A500008AE0FBA3E0FAA3E0F990000612042110
:1010B500FE900007120421FDEEFCEC12034EE4FB4A
:1010C500FA79C8784212023F9000791205C890005B
:1010D5008AE0FBA3E0FAA3E0F9900008120421FEE0
:1010E500900009120421FDEEFCEC12034EE4FBFA1C
:1010F50079C8784212023F90007D1205C890008A97
:10110500E0FBA3E0FAA3E0F9900002120421B40287
:0F1115000690003C7401F090008DE0FF1217521D
:0111240022A8
:06125B0090008E1205C890
:10126100E4FDFE0D243DF582E43400F58374AAF01B
:101271000D743D2401F582E43400F58374AAF00D68
:10128100743D2402F582E43400F58374F1F00D74A9
:101291003D2403F582E43400F583E4F090008EE010
:1012A100FF0D743D2404F582E43400F583EFF090E2
:1012B100008FE0FF0D743D2405F582E43400F583D1
:1012C100EFF0900090E0FF0D743D2406F582E434C8
:1012D10000F583EFF0900091E0FF0D743D2407F5D8
:1012E10082E43400F583EFF0900092E0FF0D743D4D
:1012F1002408F582E43400F583EFF0900093E0FFD9
:101301000D743D2409F582E43400F583EFF090007B
:1013110094E0FF0D743D240AF582E43400F583EF77
:10132100F0900095E0FF0D743D240BF582E434004C
:10133100F583EFF0ED24FC900040F0E4FFEFC39D56
:101341005010743D2FF582E43400F583E02EFE0F3A
:1013510080EBAF06AE050D743D2EF582E43400F549
:0C13610083EFF07B017A00793D0217B9A0
:10063B00E490008EF0900091F0A3F090008EE0FF1C
:10064B0004F0743D2FF582E43400F58374AAF09026
:10065B00008EE0FF04F0743D2FF582E43400F58347
:10066B0074AAF090008EE0FF04F0743D2FF582E445
:10067B003400F5837412F090008EE0FF04F0743DAB
:10068B002FF582E43400F583E4F0FFFE7DC87C4255
:10069B00900075E0F8A3E0F9A3E0FAA3E0FB1201E8
:1006AB003612038790008FEEF0A3EFF090008FE0EF
:1006BB00FF90008EE0FE04F0743D2EF582E43400D2
:1006CB00F583EFF0900090E0FF90008EE0FE04F0D9
:1006DB00743D2EF582E43400F583EFF0E4FFFE7DEC
:1006EB00C87C42900079E0F8A3E0F9A3E0FAA3E01C
:1006FB00FB12013612038790008FEEF0A3EFF09000
:10070B00008FE0FF90008EE0FE04F0743D2EF5822A
:10071B00E43400F583EFF0900090E0FF90008EE062
:10072B00FE04F0743D2EF582E43400F583EFF0E423
:10073B00FFFE7DC87C4290007DE0F8A3E0F9A3E0CA
:10074B00FAA3E0FB12013612038790008FEEF0A3A1
:10075B00EFF090008FE0FF90008EE0FE04F0743D10
:10076B002EF582E43400F583EFF0900090E0FF90DB
:10077B00008EE0FE04F0743D2EF582E43400F58328
:10078B00EFF090008FE4F0A37464F090008FE0FF23
:10079B0090008EE0FE04F0743D2EF582E43400F5FB
:1007AB0083EFF0900090E0FF90008EE0FE04F07479
:1007BB003D2EF582E43400F583EFF0E490008FF0EA
:1007CB00A3F090008FE0FF90008EE0FE04F0743DEC
:1007DB002EF582E43400F583EFF0900090E0FF906B
:1007EB00008EE0FE04F0743D2EF582E43400F583B8
:1007FB00EFF0E490008FF0A3F090008FE0FF9000FB
:10080B008EE0FE04F0743D2EF582E43400F583EFA8
:10081B00F0900090E0FF90008EE0FE04F0743D2E0F
:10082B00F582E43400F583EFF0E490008FF0A3F051
:10083B0090008FE0FF90008EE0FE04F0743D2EF5EB
:10084B0082E43400F583EFF0900090E0FF90008E8F
:10085B00E0FE04F0743D2EF582E43400F583EFF0F6
:10086B00E490008FF0A3F090008FE0FF90008EE0FB
:10087B00FE04F0743D2EF582E43400F583EFF09026
:10088B000090E0FF90008EE0FE04F0743D2EF582A8
:10089B00E43400F583EFF0E490008FF0A3F09000C8
:1008AB008FE0FF90008EE0FE04F0743D2EF582E4A5
:1008BB003400F583EFF0900090E0FF90008EE0FEA7
:1008CB0004F0743D2EF582E43400F583EFF09000D4
:1008DB008EE024FC900040F090008EE0FF900092A0
:1008EB00E0FEC39F5018743D2EF582E43400F5836F
:1008FB00E0FF900091E02FF0A3E004F080DA90008D
:10090B0091E0FF90008EE0FE04F0743D2EF582E442
:10091B003400F583EFF07B017A00793D90008EE097
:04092B00FD0217B9F9
:10175200E4FEFD90003D74AAF0A3F0A374F0F0A3A0
:101762007403F0A374BAF0E4A3F0A3EFF0743D2D78
:10177200F582E43400F583E02EFE0DEDB407EE9021
:061782000044EEF0D20469
:01178800223E
:10162E009000651205D4000000009000691205D4E8
:10163E000000000090006D1205D400000000900024
:10164E00711205D4000000009000811205D4000034
:10165E0000009000851205D4000000009000751265
:10166E0005D4408000009000791205D400000000DF
:0B167E0090007D1205D4000000002247
:100B0D009000C31205C89000C7E0FCA3E0FDA3E070
:100B1D00FEA3E0FF9000691205C89000C3E0FCA39E
:100B2D00E0FDA3E0FEA3E0FF9000651205C8900074
:100B3D0069E0F8A3E0F9A3E0FAA3E0FB900065E01B
:100B4D00FCA3E0FDA3E0FEA3E0FF12004190006DC9
:100B5D001205C8900079E0FCA3E0FDA3E0FEA3E040
:100B6D00FFEC4D4E4F6025900085E0FCA3E0FDA30A
:100B7D00E0FEA3E0FF90006DE0F8A3E0F9A3E0FA3A
:100B8D00A3E0FB1200459000851205C8E4FFFEFDB1
:100B9D007C3F900085E0F8A3E0F9A3E0FAA3E0FB29
:100BAD001202DC600C400A9000851205D43F000053
:100BBD0000E4FFFEFD7CBF900085E0F8A3E0F9A303
:100BCD00E0FAA3E0FB1202DC500A9000851205D476
:100BDD00BF000000900085E0FCA3E0FDA3E0FEA3B4
:100BED00E0FF900079E0F8A3E0F9A3E0FAA3E0FBC1
:100BFD00120136C004C005C006C00790006DE0FCB0
:100C0D00A3E0FDA3E0FEA3E0FF900075E0F8A3E0F4
:100C1D00F9A3E0FAA3E0FB120136D003D002D00114
:100C2D00D000120045C004C005C006C00790007179
:100C3D00E0F8A3E0F9A3E0FAA3E0FB90006DE0FC7F
:100C4D00A3E0FDA3E0FEA3E0FF12004190007DE0D4
:100C5D00F8A3E0F9A3E0FAA3E0FB120136D003D02C
:100C6D0002D001D0001200459000811205C89000FD
:100C7D006DE0FCA3E0FDA3E0FEA3E0FFA31205C819
:100C8D00900081E0FCA3E0FDA3E0FEA3E0FF900057
:100C9D00691205C8900069E0FCA3E0FDA3E0FEA386
:030CAD00E0FF2243
:10154A00C004C005C006C0079000BBE0FCA3E0FDD4
:10155A00A3E0FEA3E0FF9000C71205C8D007D0069B
:10156A00D005D004120B0D9000BF1205C8E4FFFE8F
:10157A007D807C3F9000BFE0F8A3E0F9A3E0FAA3E6
:10158A00E0FB1202DC600C400A9000BF1205D43F57
:10159A00800000E4FFFE7D807CBF9000BFE0F8A3DE
:1015AA00E0F9A3E0FAA3E0FB1202DC500A9000BFC4
:1015BA001205D4BF8000009000BFE0FCA3E0FDA3A9
:0515CA00E0FEA3E0FFBC
:0115CF0022F9
:070018004200CE0000C1050B
:03000B000216DCFE
:1016DC00C0E0C083C082C0D09000CFE004F07006A0
:1016EC009000CEE004F0C39000CFE094969000CE32
:1016FC00E094004006E4F0A3F0D205758ACD758C19
:0C170C00D4B2A5D0D0D082D083D0E0327F
:100E4F00AD07EDD3940240037F0122ED6003020E44
:100E5F00E3C28C900002120421B40104D2A98002D3
:100E6F00C2A9900001120421B40104D2B98002C2B8
:100E7F00B9120408FED3940340037F0222E589547C
:100E8F00FC4EF589900003120421FFB40103538E29
:100E9F007FEF7003438E80EFB40205438904800314
:100EAF005389FB900004120421B40105438F018084
:100EBF0003538FFE900005120460E5F0F58C90004F
:100ECF0005120460F58A900007120421B40102D2C2
:100EDF008C7F0022ED64016003020F6EC28E9000C2
:100EEF0002120421B40104D2AB8002C2AB90000104
:100EFF00120421B40104D2BB8002C2BB120408FE4B
:100F0F00C3940340037F0222E58954CF4EF58990A5
:100F1F000003120421FFB40103538EBFEF7003438C
:100F2F008E40EFB4020543894080035389BF900080
:100F3F0004120421B40105438F028003538FFD90E7
:100F4F000005120460E5F0F58D900005120460F5C0
:100F5F008B900007120421B40102D28E7F0022ED84
:100F6F0064027074538EEF900002120421B40105D5
:100F7F0043AF04800353AFFB900003120421FED351
:100F8F00940240037F0222EEB40103538EFB9000C4
:100F9F00031204217003438E04900003120421B442
:100FAF000205438E088003538EF79000041204212C
:100FBF00B40105438F048003538FFB900005120487
:100FCF0060FDACF0ECF5D68DD7900007120421B47C
:0B0FDF000103438E107F00227F0222DE
:1017E30090008E7401F0E4A3F0A304F0E4A3F0A34B
:1017F30004F0A374FFF0A37423F0A37401F0FB7A45
:0818030000798EE4FF020E4F94
:10003E000203F3E86480F8E933E83360110460F0FA
:10004E00ED33EC337009E8FCE9FDEAFEEBFF220428
:10005E0060DED3EB9FEA9EE99DE8C2E78CF0C2F723
:10006E0095F0400CE8CCF8E9CDF9EACEFAEBCFFBEF
:10007E001203BE85D0F05804700320D5B3E8047087
:10008E00075002B2D50203FD92D5EC0460F7E4CC22
:10009E00C0E0C398F8603B94186008400DD0E0FBB8
:1000AE000203D5E4FBFAC9FC8028E830E406E4C973
:1000BE00FBE4CAFCE830E305E4C9CACBFCE854070C
:1000CE006010F8C3E913F9EA13FAEB13FBEC13FC17
:1000DE00D8F130F52FC3E49CFCEF9BFFEE9AFEEDBA
:1000EE0099FDD0E0FBEF4E4D4C701222DB03020364
:1000FE00FAEC2CFCEF33FFEE33FEED33FDED30E783
:10010E00EB0203D5EF2BFFEE3AFEED39FDD0E0FB0F
:10011E0050130BBB00030203FDED13FDEE13FEEFB8
:08012E0013FFEC13FC0203D5E2
:10013600EC4D6011E8497017ED33EC3304600DE4C3
:10014600FCFFFEFD22E933E8330470F80203F312E4
:1001560003BE58046009E4CC2481500628500902E5
:1001660003FD2840030203FAC0E0EB4A7044B9805D
:1001760006D0E0FB0203E9EF4E701CBD8008EBFFE2
:10018600EAFEE9FD80EBE98DF0A4FEE5F002021F30
:10019600E9CDF9EAFEEBFFEF89F0A4FCE5F0CE89A4
:1001A600F0A42EFFE435F0CD89F0A42DFEE435F061
:1001B6008067EF4E7005BD80D780C3EF8BF0A4AC8F
:1001C600F0EE8BF0A42CFCE435F0F8EF8AF0A42CCA
:1001D600E5F038FCE433CB8DF0A42CFCE5F03BF8DD
:1001E600EE8AF0A42CFCE5F038F8E433CF89F0A4CD
:1001F6002CFCE5F038CF3400CE89F0A42FFFE5F0D3
:100206003EFEE433C98DF0A42EFEE5F039CD8AF02A
:10021600A42FFFE5F03EFEE43DFD33D0E0FB5007A2
:100226000BBB000F0203FDEC2CFCEF33FFEE33FE9D
:06023600ED33FD0203D5CB
:10023C000203FDEC5D046005E8590470030203F34E
:10024C001203BE580460F6EC4860F2EC7004FDFE3C
:10025C00FF22C860DB2481C85009C3986002500695
:10026C000203FA9850CAF582E9294B4A7005AB8211
:10027C000203E975F0007C1A7880C3EF9BEE9AEDCF
:10028C0099400DC3EF9BFFEE9AFEED99FDE842F00D
:10029C00DC23ACF0D0E0FFD0E0FED0E0FDAB822060
:1002AC00E7101BEB60BAEC2CFCEF33FFEE33FEEDEA
:1002BC0033FD0203D5E803F830E705C0F075F00014
:1002CC00EF2FFFEE33FEED33FD40B830E7C280AACE
:1002DC0074F8CC6480CCC86480C8F582046043C3D5
:1002EC00EB9FF5F0EA9E42F0E99D42F0E89C45F068
:1002FC0060305018E5825FFFE582F42B5582FB508D
:10030C00210ABA001D09B90019088016E5825BFBA9
:10031C00E582F42F5582FF50090EBE00050DBD007D
:10032C00010CC3EB9FF5F0EA9E42F0E99D42F0E828
:0D033C009C45F06007CC4820E701B3EC229F
:1003490075F020800E75F010800575F0087D007E2F
:10035900007F003392D530D503120566EC33401087
:10036900EF33FFEE33FEED33FDEC33FCD5F0ED2238
:0E037900E5F0247EA2D513CC92E7CDCEFF2274
:10038700EDD2E7CD33EC3392D524814006E4FFFE6E
:10039700FDFC22FCE4CFCECDCC24E0501174FF80CD
:1003A700EDC3CC13CCCD13CDCE13CECF13CF04706A
:0703B700F030D5DE020566FF
:1003BE00E9D2E7C933E833F892D5EDD2E7CD33EC85
:0703CE0033FC5002B2D522FE
:1003D500EC30E7100FBF000C0EBE00080DBD000489
:1003E5000BEB6014A2D5EB13FCED92E7FD2274FF35
:1003F500FCFDFEFF22E480F8A2D574FF13FC7D808E
:03040500E480EFA1
:030000000214BE29
:0C14BE00787FE4F6D8FD758170021505FA
:10040800BB010689828A83E0225002E722BBFE02F2
:09041800E32289828A83E4932225
:10042100BB010CE58229F582E5833AF583E0225090
:1004310006E92582F8E622BBFE06E92582F8E222DA
:0D044100E58229F582E5833AF583E49322F4
:10044E00BB010689828A83F0225002F722BBFE018D
:02045E00F32287
:10046000BB0110E58229F582E5833AF583E0F5F0DA
:10047000A3E0225009E92582F886F008E622BBFEB7
:100480000AE92582F8E2F5F008E222E5832AF583FD
:08049000E993F5F0A3E99322C2
:1004980075F008758200EF2FFFEE33FECD33CDCC1B
:1004A80033CCC58233C5829BED9AEC99E58298409E
:1004B8000CF582EE9BFEED9AFDEC99FC0FD5F0D67B
:1004C800E4CEFBE4CDFAE4CCF9A88222B800C1B9A5
:1004D8000059BA002DEC8BF084CFCECDFCE5F0CBE3
:1004E800F97818EF2FFFEE33FEED33FDEC33FCEB1C
:1004F80033FB10D703994004EB99FB0FD8E5E4F9D7
:10050800FA227818EF2FFFEE33FEED33FDEC33FCC3
:10051800C933C910D7059BE99A4007EC9BFCE99AB7
:10052800F90FD8E0E4C9FAE4CCFB2275F010EF2FFC
:10053800FFEE33FEED33FDCC33CCC833C810D707FC
:100548009BEC9AE899400AED9BFDEC9AFCE899F837
:0E0558000FD5F0DAE4CDFBE4CCFAE4C8F922CA
:0E056600C3E49FFFE49EFEE49DFDE49CFC22A6
:10057400EB9FF5F0EA9E42F0E99D42F0E89C45F0DD
:010584002254
:10058500E8600FECC313FCED13FDEE13FEEF13FF54
:03059500D8F12278
:10059800BB010DE58229F582E5833AF5830206124F
:1005A8005007E92582F8020605BBFE07E92582F80F
:1005B80002061EE58229F582E5833AF58302062BB9
:0C05C800ECF0A3EDF0A3EEF0A3EFF022A6
:1005D400A8828583F0D083D0821205EB1205EB123A
:1005E40005EB1205EBE473E493A3C583C5F0C5835F
:1005F400C8C582C8F0A3C583C5F0C583C8C582C871
:0106040022D3
:1014CA00021839E493A3F8E493A34003F68001F2E7
:1014DA0008DFF48029E493A3F85407240CC8C33323
:1014EA00C4540F4420C8834004F456800146F6DFF2
:1014FA00E4800B010204081020408090000EE47E74
:10150A00019360BCA3FF543F30E509541FFEE493E6
:10151A00A360010ECF54C025E060A840B8E493A3AD
:10152A00FAE493A3F8E493A3C8C582C8CAC583CAD8
:10153A00F0A3C8C582C8CAC583CADFE9DEE780BE90
:01001F0000E0
:0D060500E6FB08E6F908E6FA08E6CBF82265
:0C061200E0F8A3E0F9A3E0FAA3E0FB226B
:0D061E00E2FB08E2F908E2FA08E2CBF8225C
:10062B00E493F8740193F9740293FA740393FB2225
:00000001FF
